:020000040800F2
:10000000C004002045010008D71A0008AB190008F9
:10001000D51A00088D080008C91B00080000000060
:10002000000000000000000000000000FB1A0008B3
:10003000010B000800000000F91A0008FD1A000872
:100040005F0100085F0100085F0100085F01000810
:100050005F0100085F0100085F0100085F01000800
:100060005F0100085F0100085F0100085F010008F0
:100070005F0100085F0100085F0100085F010008E0
:100080005F0100085F0100085F0100085F010008D0
:10009000BD1B00085F0100085F0100085F01000848
:1000A0005F0100085F0100085F0100085F010008B0
:1000B0005F0100085F0100085F0100085F010008A0
:1000C0005F0100085F0100085F0100085F01000890
:1000D0005F0100085F0100085F0100085F01000880
:1000E0005F0100085F0100085F0100085F01000870
:1000F0005F0100085F0100085F0100085F01000860
:100100005F0100085F0100085F0100085F0100084F
:100110005F0100085F0100085F0100085F0100083F
:100120005F0100085F0100085F0100085F0100082F
:10013000DFF80CD000F098FB00480047C51C000811
:10014000C00400200648804706480047FEE7FEE757
:10015000FEE7FEE7FEE7FEE7FEE7FEE7FEE7FEE777
:10016000751B000831010008202A04DB203A21FA1F
:1001700002F00021704721FA02F3D040C2F12002C0
:100180009140084319467047F0B480EA0102D40F49
:100190004200B2EB410F02D20246084611464A0025
:1001A00042D0C30DDDB2C1F3C752AD1A202D35DAEE
:1001B000C1F3160141F4000204B15242C5F1200618
:1001C00002FA06F12A411044B3EBD05F23D0C4B148
:1001D000012DA0EBC35009DCF0BC4FF0004202EA55
:1001E000C352DBB200F5000000F03FBA400000F15E
:1001F000807000EBC350A0F1807040EAD1704900DC
:1002000009E0490841EAC071A0EBC35000F50000C5
:10021000400800EBC350F0BC00F01EBA614201225E
:1002200002EB4101001BF6E7F0BC704781F0004192
:10023000AAE780F00040A7E780EA010210B502F0CB
:100240000043400022D04A001FD0010E01EB126192
:10025000C0F35600C2F3560240F4000042F400021C
:10026000A0FB022000047F39140400D0401C50EA97
:10027000124001D44000491EC2B20C0604EBD0105B
:10028000401C4008802A02D003E0002010BD20F06E
:100290000100002900DA0020184310BD30B480EAC4
:1002A000010202F0004530F0004221F0004013D07E
:1002B00090B1C30DD40DC2F31601C0F31600E41AB9
:1002C00041F4000140F400027D34914201D3641CEA
:1002D00000E04900002C02DA30BC002070474FF4E7
:1002E00000000023914201D3891A034340084FEADA
:1002F0004101F7D151B1914202D14FF0004105E0E7
:1003000002D24FF0010101E06FF0010103EBC45094
:10031000284430BC00F0A0B9420005D0C0F3C75259
:100320005242914201DC0020704700EBC1507047FF
:100330002DE9FE4F804681EA0300C00F0C46009075
:1003400021F0004123F00045B8EB0200A94105D29D
:100350004046214690461C460B46024623F000408C
:10036000104347D0270DC7F30A00C3F30A51029088
:10037000401A019040286BDAC3F3130040F4801B4D
:100380000098924620B10023D2EB030A63EB0B0BDB
:1003900001985946C0F14002504600F03CF906462B
:1003A0000D4650465946019A00F044F910EB0800FA
:1003B0006141002487EA115284EAE7731A4340D06E
:1003C000009A62B3019A012A4FEA075215DC001B1A
:1003D00061EB02014FF0004202EA0752CDE9004210
:1003E000001C41F5801132462B4600F07BF903B02A
:1003F000BDE8F08F40462146F9E7001B61EB0201A2
:10040000001C41F5801300185B412018A2F500176D
:1004100047EB030140EAD570B6196D4111E06D0854
:100420004FEA360645EAC0754FEA0752001B61EBFA
:100430000201001C41F5801149084FEA3000001903
:10044000514132462B4603B0BDE8F04F00F03BB9B6
:100450000098012240000023D0EB020263EBE0731E
:10046000009821464FEAE074B8EB000061EB04010C
:10047000E9E783F000435BE781F0004158E72DE9AD
:10048000FE4F81EA030404F0004421F0004100948F
:100490004FF0000B23F0004350EA01045ED052EA13
:1004A00003045BD0C3F30A54C1F30A552C44A4F2ED
:1004B000F3340194A0FB0254C1F3130141F4801101
:1004C000C3F3130343F4801301FB024400FB034E08
:1004D000840A970A44EA815447EA8357A4FB0768D1
:1004E00002958D0A05FB07854FEA932C04FB0C54FB
:1004F0002705029D4FEA065847EA1637B5EB08056F
:100500006EEB070C870E920E47EA811742EA8312C0
:10051000A7FB0201B6EB0B0164EB00042B0D43EAD1
:100520000C335E1844EB1C50DA465146E7FB0201DF
:10053000C5F313044FEA0B3343EA14534FEA043272
:10054000019C43EA0603A4F10C040294009CCDE94B
:1005500000B400F0C7F803B0BDE8F08F00200146FA
:10056000F9E796230022114600F07FB80EB540F25D
:10057000334102910021CDE900110A460B4600F0FB
:10058000B1F803B000BDC1F30A5210B5C1F31301B5
:1005900040F2FF3341F480119A4201DA002010BD8D
:1005A00040F233439A42A2F2334203DC5242FFF755
:1005B000DBFD10BD904010BD00F0004230F0004067
:1005C0000AD0C10D01F56071C0F3160042EA015175
:1005D000C20840071143704700200146704701F0F0
:1005E000004330B421F0004150EA010206D00A0D68
:1005F000A2F56072C1F31301002A02DC30BC0020B6
:100600007047440F44EAC104C100E01830BC00EB5D
:10061000C25000F021B8202A04DB203A00FA02F18F
:10062000002070479140C2F1200320FA03F31943E0
:1006300090407047202A06DBCB17203A41FA02F09F
:1006400043EAE07306E041FA02F3D040C2F120022F
:1006500091400843194670470029A8BF7047401CC5
:10066000490008BF20F00100704710B4B0FA80FCC8
:1006700000FA0CF050EA010404BF10BC704749B105
:10068000CCF1200421FA04F411FA0CF118BF012175
:1006900021430843A3EB0C01CB1D4FEA00614FEA55
:1006A000102042BF002010BC704700EBC350104424
:1006B0000029A4BF10BC7047401C490008BF20F0AF
:1006C000010010BC704710B5141E73F1000408DA65
:1006D000401C41F1000192185B411A4301D120F006
:1006E000010010BD2DE9F04D92469B4611B1B1FAC3
:1006F00081F202E0B0FA80F220329046FFF78BFFE1
:1007000004460F4640EA0A0041EA0B0153465A46A6
:10071000084313D0114653EA010019D0C8F1400232
:100720005046FFF721FD05460E46504659464246C3
:10073000FFF771FF084305D0012004E02046394649
:10074000BDE8F08D0020054346EAE0762C433743B0
:100750000A986305E40AA0EB08000022FD0A44EAB7
:1007600047540A3002D500200146E9E70105101977
:100770006941DDE9084500196941BDE8F04DA2E78E
:100780002DE9F041054621F000400C46284309D0F0
:10079000C4F30A5040F23341884205DD2846214621
:1007A000BDE8F0812846FBE740F2FE31884210DCCC
:1007B0000CDB4FEA043040EA155050EA053105D011
:1007C000104804F0004101430020E9E70020014601
:1007D000E6E7A0F233404642C6F1400228462146F1
:1007E000FFF719FF07468846284621463246FFF79D
:1007F000BBFC43463A46FFF766FF3246BDE8F04190
:10080000FFF709BF0000F03F30B5041E71F100048E
:1008100004DB4FF00044404264EB0101141E73F10D
:10082000000405DB1C464FF00043524263EB040317
:100830008B4208BF824230BD30B5041E71F1000406
:1008400004DB4FF00044404264EB0101141E73F1DD
:10085000000405DB1C464FF00043524263EB0403E7
:10086000994208BF904230BD064C074D06E0E06853
:1008700040F0010394E8070098471034AC42F6D3E7
:10088000FFF75AFC741F0008941F0008FEE70000E1
:100890002DE9F0418046002501264FF07E5041466B
:1008A000FFF7CAFC284C294FE06007E0760030468D
:1008B000FFF757FE4146FFF7BFFC6D1CB842F5DB62
:1008C0002349E060FFF7EAFC06462061FFF774FE6B
:1008D00001F08AF9FFF757FE07466062FFF741FE15
:1008E0003146FFF7A6FC18216061FFF715FD804631
:1008F000FFF762FE01F078F9FFF745FE0646E0617A
:10090000FFF72FFE01464046FFF790FC1149A0611A
:10091000FFF792FCFFF750FE01F0DAFAFFF733FE23
:100920000949206234318A6965F357528A613A0174
:100930000A63012202EB0612CA62074A02EB8040F8
:100940008862BDE8F08100000400002000404E45B0
:100950000000C84200FC7F46F2FF030010B50029EA
:1009600058D0826B4FF4D873046803EB0113E4583A
:1009700014F0040494600468E4584DD0E408546012
:100980000468E35803F00203D3604FF4DA73046899
:1009900003EB0113E45804F00F04146111620468BE
:1009A000E358C3F30723D3614FF4DC73046803EB0C
:1009B0000113E45814750468E458240A5475046853
:1009C000E458240C94750468E3581B0ED3754FF457
:1009D000DE73046803EB0113E45814760468E458EA
:1009E000240A54760468E458240C94760468E35886
:1009F0001B0ED3760368202289B11A6102685369FD
:100A000023F05003536190F83C20222A0DD0322A63
:100A10000BD00FE0426BA5E7640D1460B0E7DA601D
:100A20000268536923F00A03ECE70268536923F470
:100A30000F43536112220123002990F83C1006D085
:100A4000522915D0622916D0722906D115E0422903
:100A50000ED0622908D0722908D080F83C3000BF3F
:100A600000F0BAFA002010BD322107E0522105E063
:100A700080F83C20F4E7222100E0422180F83C107D
:100A8000EEE700002DE9F0471C4E054600244FF428
:100A9000805922464946304600F037FC012000F0DC
:100AA00029FB4FF400683715C4F11F0025FA00F048
:100AB00000F001024146304600F027FC012000F022
:100AC00019FB01223946304600F01FFC012000F0DE
:100AD00011FB00223946304600F017FC012000F0DF
:100AE00009FB641C202CDFD301224946304600F06C
:100AF0000CFCBDE8F047012000F0FCBA00100140FA
:100B000070470000F0B50C7D012303FA04F204687D
:100B1000D4F800524E6A25F47C5503EB06231D439E
:100B2000C4F800520368D3F81C429443C3F81C4233
:100B30004FF41073CD691C1DBDB90568D5F80C6262
:100B40009643C5F80C628E894D684F6966F31F4560
:100B5000066803EBC707F5510E890D684F6966F308
:100B60001F45066804EBC707F551CD69012D17D164
:100B70000568D5F80C621643C5F80C620E884D68FE
:100B80004F6966F31F45066803EBC703F5500D89EF
:100B9000CB684E6965F31F43056804EBC6042B510F
:100BA0008B69002B0368D3F8044211D054EA020485
:100BB000C3F804420B69002B0368D3F8144209D030
:100BC00054EA0204C3F81442096A012904D009E076
:100BD0009443EDE79443F5E70168D1F81C321343E1
:100BE000C1F81C320068D0F8001221F00101C0F8F1
:100BF00000120020F0BD70472DE9F0410446006866
:100C00000026C168C1F300134169C1F3C00210217D
:100C100013B10AB14E01C160206802694369C2F391
:100C20000012C3F380131AB113B146F48066016158
:100C3000216848694FF00105C043C0074ED18A685A
:100C40007648904323D000208B68754A9A4320D081
:100C500000228F68734BBB431DD000231043184301
:100C60003CD088688A68C0F340008B68C2F3402299
:100C700003F001031043184329D04A69204622F0AB
:100C800001024A6194F83C10122906D00AE00120C2
:100C9000DAE70122DDE70123E0E701684A6922F48F
:100CA0000F424A6190F83C10422908D0522908D0DE
:100CB000722908D080F83C5000F01AFA09E022218D
:100CC00002E0322100E0622180F83C10F4E746F4B3
:100CD000006620688168544A114381602168C868B1
:100CE000496910F0030FC1F3400104D019B100218C
:100CF0002046FFF733FE21680869496910F0030FA9
:100D0000C1F3001104D019B101212046FFF726FEDE
:100D1000206C3043206420688169426911F0010F22
:100D20004369C2F30022C3F3C03305D022B11BB123
:100D3000216C41F0010121648169C1F340034169E3
:100D4000C1F340224169C1F3C0312BB122B119B1C5
:100D5000216C41F0020121648169C1F38003416982
:100D60004269C1F38021C2F3C0322BB121B11AB163
:100D7000216C41F004012164816911F0700F08D0E9
:100D800000224169C1F3C0234169C1F3C03112B1EE
:100D900021E00122F5E7F3B1E9B1816901F07001C9
:100DA00040292FD006DC102909D020290BD030296A
:100DB0000DD123E0502929D0602908D12AE0216CE7
:100DC00041F0080102E0216C41F0100121648169C9
:100DD00021F070018161206C00280DD02168042071
:100DE000486084F83C502068416948F65B72914342
:100DF00041612046FFF7FFFEBDE8F081216C41F024
:100E00002001E3E7216C41F04001DFE7216C41F074
:100E10008001DBE7216C41F48071D7E70100000419
:100E20000001000800000110090501002DE9F04152
:100E300004004FF0000504D094F83C00002618B1DF
:100E400007E00120BDE8F08184F83D60204600F015
:100E500083F8022084F83C002068016821F0020138
:100E600001602068016841F00101016000F052FA60
:100E700007464FF0030804E000F04CFAC01B0A28B4
:100E800053D820684068C007F6D021684868C0077A
:100E900058D0A069012801D145F08005E0690128FA
:100EA0002FD025F04000226A012A2DD020F020000A
:100EB000626A012A2BD020F01000A26A012A29D0F0
:100EC00020F00800E26A012A27D020F004000A6816
:100ED00022F0FC0202430A60D4E902010843D4E98B
:100EE0000412114308436168491E08432168C86120
:100EF0002068016821F00101016000F00BFA05464D
:100F000018E045F04000CEE740F02000D0E740F088
:100F10001000D2E740F00800D4E740F00400D6E724
:100F200000F0F8F9401B0A2804D904F83C8F03208C
:100F3000667087E720684068C007F1D12068406884
:100F4000C00703D0042084F83C007AE7266401201F
:100F500084F83C00002075E710B500681A4986B097
:100F600088422ED11948C16941F00071C161C06940
:100F7000174C00F0007004904FF480700090002037
:100F8000019002906946204600F0C6F86015009076
:100F900002200190032003906946204600F0BCF82F
:100FA0000C48416821F4C04141F0E06141F48041C6
:100FB000416000221146142000F038FA142000F09D
:100FC00029FA06B010BD0000006400400010024085
:100FD000000C0140000001402DE9F047DFF8E090EF
:100FE0000021054689F80010466B09F12C0096F89F
:100FF000148080F8008096F815C080F801C0B47D98
:101000008470F37DC370327E0271717E4171B77E50
:101010008771F67EC671B8F1440F46D1BCF1410F1D
:1010200043D1542C41D1462B3FD101204C4689F865
:10103000000001EB0220FFF794FA8046A06206EB65
:1010400007200A2804D2FFF791FA1E4A1E4B1EE021
:10105000642804D2FFF78AFA1C4A1D4B17E0B0F54A
:101060007A7F04D2FFF782FA1A4A1B4B0FE042F252
:101070001071884204D2FFF779FA184A184B06E03B
:101080001849884211D2FFF771FA174A174BFFF738
:10109000F6F906460F464046FFF78EFA32463B46C3
:1010A000FFF746F9FFF79BFAA0622868C16841F094
:1010B0002001C160296802204861BDE8F087000076
:1010C000040000209A9999999999B93F7B14AE47E9
:1010D000E17A843FFCA9F1D24D62503F2D431CEBD5
:1010E000E2361A3FA0860100F168E388B5F8E43ED5
:1010F0007047000070B5044600F00CF90546601C0E
:1011000002D004480078044400F004F9401BA042D7
:10111000FAD370BD6C0000202DE9F84FDFF8B8A1BC
:1011200000220AF1040B144601274FF00F090BF1BE
:10113000040E00BF0B6807FA04F52B40AB4274D1D4
:10114000DFF898C14E68A6EB0C0866452BD00DDC85
:10115000032E34D005DC36B3012E19D0022E2FD148
:101160001BE0112E16D0122E2AD119E0B8F5881FD7
:1011700019D006DCB8F5803F15D0B8F5801F1FD117
:1011800011E0B8F5001F0ED0B8F5041F18D10AE021
:10119000CA6815E0CA68121D12E0CA6808320FE07A
:1011A000CA680C320CE08A682AB1012A4FF00802A2
:1011B00003D0456104E0042202E0056100E0002262
:1011C000FF2B01D8064601E000F104064FEA840532
:1011D00001D9A5F12005D6F800C009FA05F82CEAD6
:1011E000080C02FA05F54CEA050CC6F800C04D687B
:1011F000ED006AD53A4DAE6946F00106AE61AD69C3
:1012000024F0030605F001050095364D06EB050CAC
:10121000DCF80850A6074FEA167809FA08F6B54335
:10122000314EB04202D100261AE04EE02F4EB042BD
:1012300001D1012614E02E4EB04201D102260FE06A
:101240002C4EB04201D103260AE02B4EB04201D110
:10125000042605E0294EB04201D1052600E006260D
:1012600006FA08F62E43CCF808604D68DAF80060FC
:10127000ED03554601D51E4300E09E432E604D68A8
:10128000AD0305D5DBF800601E43CBF8006004E039
:10129000DBF800509D43CBF800504D68DEF800604D
:1012A000ED02754601D51E4300E09E432E604D6859
:1012B000AD0205D5084D0C352E681E432E6004E0A6
:1012C000054E0C3635689D433560641C102CFFF4C8
:1012D00031AFBDE8F88F000000040140000011109C
:1012E000001002400000014000080140000C0140D5
:1012F000001001400014014000180140001C014092
:101300008068084000D0012070470AB10161704731
:101310000904FBE701488068704700006C0000206A
:101320000248816802781144816070476C00002097
:10133000074810B5016841F010010160032000F07A
:1013400095F8002000F006F800F024F8002010BD09
:101350000020024070B50D4D04464FF47A71287894
:10136000B1FBF0F00A490968B1FBF0F000F005FBB1
:1013700048B9102C07D200222146501E00F056F822
:1013800000206C6070BD012070BD00006C0000206A
:10139000000000201D4808B5816941F0010181610C
:1013A000806900F001000090032000F05FF8002247
:1013B00011466FF00B0000F039F8002211466FF073
:1013C0000A0000F033F8002211466FF0090000F027
:1013D0002DF800221146501F00F028F80022114677
:1013E000101F00F023F800221146901E00F01EF896
:1013F00000221146501E00F019F80548416821F0FE
:10140000E06141F08061416008BD000000100240D1
:101410000000014000F01F020121914040098000BE
:1014200000F1E020C0F8001170470000F0B40E4B4E
:101430001B680C46C3F30223C3F10705042D00D932
:101440000425191D072901D2002300E0DB1E012617
:1014500006FA05F1491E214099409E40761E16402D
:101460003143F0BC00F038BB0CED00E0064900F061
:10147000070208684FF6FF03184040EA0220034ABB
:1014800010430860704700000CED00E00000FA0512
:101490002DE9F047DFF83C8105460E46D8F80000FC
:1014A00000F00700B0420CD2D8F8001021F007017C
:1014B0003143C8F80010D8F8000000F00700B0422F
:1014C00063D12878444C800705D56068A96820F06E
:1014D000F000084360602878C00745D0686801289C
:1014E00016D02168022816D0890700294DDA6168D4
:1014F00021F0030101436160FFF70CFF69680746B3
:1015000041F2883001290FD00229814619D027E005
:1015100021688903E9E78901E7E700BFFFF7FAFEE1
:10152000C11B494501D918E081466068C0F38100BC
:101530000128F3D118E000BFFFF7ECFEC11B4945BD
:101540000BD86068C0F381000228F5D10CE000BF21
:10155000FFF7E0FEC11B494502D90320BDE8F08733
:10156000606810F00C0FF3D1D8F80010404601F07D
:101570000701B1420BD9016821F007013143016035
:10158000006800F00700B04201D00120E6E72878AB
:10159000400705D56068E96820F4E06008436060B2
:1015A0002878000706D56068296920F4605040EA71
:1015B000C100606000F01CF86168084AC1F30311C3
:1015C000515CC840064908600020FFF7C3FE0020B8
:1015D000C4E700000020024000100240641F000821
:1015E0000000002001480068704700000000002053
:1015F00012A185B00FC98DE80F0014A0144A00682D
:1016000004905168134801F00C03042B10D0082BF0
:101610000ED1C1F38343C9031DF803000AD55168F5
:1016200004AAC1F34041515C0A4A5043B0FBF1F0B7
:1016300005B0704708494843FAE700000203040573
:10164000060708090A0B0C0D0E0F1010010200000E
:101650000010024000127A0000093D002DE9F84F09
:1016600004460078B94DC00748D06868C0F38100CF
:10167000012807D06868C0F38100022809D1686892
:10168000C00306D52868800338D5606800286FD06D
:1016900034E06068B0F5803F0BD010B1B0F5A02FFA
:1016A00011D0286820F480302860286820F4802039
:1016B00002E0286840F480302860606888B1FFF755
:1016C00029FE064609E0286840F480202860F0E7FB
:1016D000FFF720FE801B642875D828688003F7D5A3
:1016E0000CE0FFF717FE064605E000BFFFF712FE0D
:1016F000801B6428F0D828688003F7D42078944EA3
:1017000080074FF001094FF000083BD5686810F0E2
:101710000C0F07D06868C0F38100022809D16868FF
:10172000C00306D42868800714D5206901281FD17A
:1017300010E02069B0B1C6F80090FFF7EBFD074656
:1017400005E000BFFFF7E6FDC01B0228C4D82868EB
:101750008007F7D52868616920F0F80040EAC100E9
:1017600028600FE0C6F80080FFF7D4FD074606E0CA
:10177000E9E000BFFFF7CEFDC01B022823D8286890
:101780008007F7D4207800072CD57248A169D9B119
:10179000C0F80090FFF7BEFD074604E0FFF7BAFD72
:1017A000C01B02280FD8686A8007F7D56A484FF433
:1017B000FA510068B0FBF1F0009000BF0098411EA4
:1017C0000091FAD20EE080E0C0F80080FFF7A2FDA1
:1017D000074604E0FFF79EFDC01B022875D8686A23
:1017E0008007F7D42078400760D5E8690027C0005B
:1017F00008D4E86940F08050E861E869012700F00A
:101800008050009055480168C90513D4016883468B
:1018100041F480710160FFF77DFD824606E000BF64
:10182000FFF778FDA0EB0A0064284ED8DBF8000033
:10183000C005F5D5E06801280AD008B1052813D005
:10184000286A20F001002862286A20F0040002E0E3
:10185000286A40F001002862E06841F2883B98B1B4
:10186000FFF758FD82460BE0286A40F0040028622A
:10187000EEE700BFFFF74EFDA0EB0A0159455AD82D
:10188000286A8007F6D50CE0FFF744FD824605E0A4
:10189000FFF740FDA0EB0A0159454CD8286A8007A4
:1018A000F6D41FB1E86920F08050E861E06988B3A0
:1018B0006968C1F38101022945D00228C6F8608019
:1018C00004D0FFF727FD044638E034E0FFF722FD9F
:1018D000074604E0FFF71EFDC01B02282BD828682E
:1018E0008001F7D4206AB0F5803F05D16868A1680F
:1018F00020F4003008436860D4E9080108436968AF
:1019000021F4741108436860C6F86090FFF702FD87
:10191000044606E015E000BFFFF7FCFC001B0228B0
:1019200009D828688001F7D50BE000BFFFF7F2FC6B
:10193000001B022802D90320BDE8F88F2868800127
:10194000F4D40020F8E70120F6E700000010024080
:10195000000042428004424200000020007000402B
:101960004FF0E0210428086903D020F0040008614A
:10197000704740F00400FAE7704710B5401EB0F120
:10198000807F01D3012010BD4FF0E02460610F2162
:10199000601700F0A1F80020A0610720206100205E
:1019A00010BD10B5FFF7E8FF10BDFEE70E4810B5FB
:1019B0000C4901601021416000214FF40032816028
:1019C000C0E903125201C0E905210122C261C0E948
:1019D00008218162C162FFF729FA002800D0FEE7E2
:1019E00010BD000000640040780000202DE9F043A5
:1019F000334885B0816941F020018161816901F03E
:101A000020010491816941F004018161816901F043
:101A100004010491816941F008018161816901F04B
:101A200008010491816941F0100181618069254EAE
:101A300000F010000490002208213046FFF765FCFA
:101A4000DFF884804FF4E057002239464046FFF724
:101A50005CFCDFF87890002204214846FFF755FC33
:101A600008200125CDE9000502246946039430468B
:101A7000FFF752FB4FF470400026CDE9000669469F
:101A800002941348FFF748FB4020CDE90006694661
:101A900002944046FFF740FB0320CDE90075039018
:101AA00069464046FFF738FB0420CDE9000569464A
:101AB00003944846FFF730FB05B0BDE8F083000013
:101AC00000100240000801400010014000140140D5
:101AD000000C0140FEE770470907090E002806DAEE
:101AE00000F00F0000F1E02080F8141D704700F1B5
:101AF000E02080F8001470477047704710B5FFF77A
:101B00000FFCBDE81040FFF74CBF30B58FB001218E
:101B10000804CDE900100024029402250491CDE9C7
:101B200007504FF4E01009906846FFF797FD00B1A9
:101B3000FEE70F20CDE90A054FF48060CDE90C40A7
:101B400002210AA80E94FFF7A3FC00B1FEE7FFF7FD
:101B500049FD4FF47A71B0FBF1F0FFF70EFF04205E
:101B6000FFF7FEFE00221146501EFFF75FFC0FB08C
:101B700030BD00000D48016841F00101016041687D
:101B80000B4A1140416001680A4A11400160016836
:101B900021F480210160416821F4FE0141604FF48D
:101BA0001F0181600449C0030860704700100240B3
:101BB0000000FFF8FFFFF6FE08ED00E00148FFF728
:101BC0001BB8000078000020FEE702E008C8121FE2
:101BD00008C1002AFAD170477047002001E001C116
:101BE000121F002AFBD170472DE9F041C1F30A52C0
:101BF000A2F2FF362F4A304B0D460446142E2FDA40
:101C0000002E12DAFEF794FB00221346FEF714FEB4
:101C10004CD2002DA4BF0024254647DA25F0004011
:101C2000204318BF254D41D018E0DFF894C02CFAAE
:101C300006F705EA070C5CEA040C08BFBDE8F08172
:101C4000FEF776FB00221346FEF7F6FD2ED2002D9E
:101C500003DA4FF48010F0400544BD43002425E032
:101C6000332EC8BFBDE8F081A6F1140C4FF0FF374A
:101C700027FA0CF73C4208BFBDE8F081FEF7FCFBF9
:101C800000221346FEF7D8FD10D2002D0DDA142ED7
:101C900008BF6D1C09D0C6F13400012101FA00F023
:101CA0002044A04238BF6D1C0446BC432946204650
:101CB000BDE8F0819C7500883CE4377E0000F0BFF1
:101CC000FFFF0F0094B0FFF733FBFFF71EFFFFF796
:101CD0008DFEFFF76BFE774F40213846FFF710FB74
:101CE000754C764E4FF40041A0703046FFF708FB6C
:101CF000E0704FF480413046FFF702FB2071711411
:101D00003046FFF7FDFA4FF4805960714D46494661
:101D10003046FFF7F5FAA071A178E27841EA420176
:101D2000227941EA8201627941EAC20141EA001066
:101D3000C0B260706430A060012204216048FFF7E7
:101D4000E4FA6420FFF7D6F9012229463846FFF766
:101D5000DCFA4FF4806A002251463846FFF7D5FA84
:101D60004FF4006B002259463846FFF7CEFA554E25
:101D700060203168086000254FF001080E20CDE991
:101D8000065809900595A168CDF8208008EBC1019F
:101D90000A0C89B2CDE900214FF6FF7102914FF68E
:101DA000E171CDE903150AA8706369463046FEF774
:101DB000A9FE00B1FEE73068416941F002014161CE
:101DC000414E012208213046FFF79FFA4FF47A7006
:101DD000FFF790F9002208213046FFF796FA84F8C1
:101DE00000803A48A046A06298F8001040460129B9
:101DF000FAD10570D8F82800FEF74AFD2E4C34348D
:101E00002068FEF73FFE6068FEF73CFEA068FEF724
:101E100039FE206AFEF736FEE068FEF733FE2069E1
:101E2000FEF730FE6069FEF72DFEA069FEF72AFE80
:101E3000E069FEF727FE206AFEF724FE606AFEF7DF
:101E400021FEA06AFEF71EFEE06AFEF71BFE0120DF
:101E5000FFF750F9206B40F40010FEF713FE206AE4
:101E6000FEF710FEA06AFEF70DFEE06AFEF70AFE1E
:101E7000206BFEF707FE012249463846FFF745FA78
:101E8000002251463846FFF740FA002259463846AC
:101E9000FFF73BFA012208213046FFF736FA4FF4EC
:101EA000FA70FFF727F9002208213046FFF72DFAD4
:101EB0009AE700000010014004000020000C0140DF
:101EC00000140140780000200008014000007A451D
:101ED0002DE9F04D07460E46FEF752FC04460D462E
:101EE0003A463346FEF7C8FADFF86CA0DFF86CB06C
:101EF0001B4B0746884616F0004F4FF000020AD0F1
:101F0000FEF782FC0AD900225B4638464146FEF7BE
:101F100093FC1BD212E0FEF777FC08D20022534656
:101F200020462946FEF7A5FA04460D460EE000229B
:101F30005B4638464146FEF77FFC07D800225346F1
:101F400020462946FEF7F4F904460D463146204660
:101F500065F31E01BDE8F08D0000F03F0000E03F9A
:101F60000000E0BF000000000000000001020304C8
:101F700006070809941F00080000002078000000F0
:101F8000CA1B00080C20000878000020480400004C
:101F9000DA1B000800A24A04000000000000000054
:101FA0000000000000000000000000000000000031
:101FB0000000000000000000000000000000000021
:101FC0000000000000000000000000000C050100FF
:101FD0000B208100BA3E0060997F0634B8A6691ACA
:101FE000E7020010468024352500800084890034F3
:101FF00003000000F2FF030001000000A003000046
:0C200000010000001000000000000000C3
:0400000508000131BD
:00000001FF
